:020000040000FA
:100000000C9498000C94F1060C94CA060C94C00051
:100010000C94C0000C94C0000C94C0000C94C00060
:100020000C94C0000C94C0000C94C0000C94C00050
:100030000C94C0000C94C0000C94C0000C94C00040
:100040000C9480060C94C0000C94C0000C94C0006A
:100050000C94C0000C94C0000C94C0000C94C00020
:100060000C94C0000C94C000000000002400270085
:100070002A0000000000250028002B0000000000DE
:1000800023002600290004040404040404040202DA
:100090000202020203030303030301020408102007
:1000A0004080010204081020010204081020000012
:1000B0000008000201000003040700000000000027
:1000C00000005E01011F01030301008A02010A0111
:1000D0000202010064001E47040B0906007C0101B6
:1000E000060103030100F401060E0102020100C231
:1000F00001170101020201019600023E01060601FC
:1001000000C80003820710031000C8008207100710
:100110001003016D01120103010103010E0124010D
:100120000102020101400124010102020101AA0EA3
:1001300011241FBECFEFD8E0DEBFCDBF11E0A0E09D
:10014000B1E0E6EAFEE102C005900D92AC3DB107D8
:10015000D9F722E0ACEDB1E001C01D92AB3BB20794
:10016000E1F710E0C8E9D0E004C02197FE010E9449
:100170003C0FC739D107C9F70E9418070C94510FDB
:100180000C940000E0919402F0919502EF3FFE077D
:1001900039F11092900210929102109292021092F4
:1001A000930210928F0210928E022E2FE230C0F432
:1001B000FF27EE0FFF1FE859FE4F8AE195E091837C
:1001C000808380916900213031F08C7F8160809341
:1001D0006900E89A0895837F846080936900E99AB2
:1001E00008950895AF92BF92CF92DF92EF92FF925F
:1001F0000F931F93CF93DF936C017B018B01040F4F
:10020000151FEB015E01AE18BF08C017D10759F0EA
:100210006991D601ED91FC910190F081E02DC6012C
:100220000995892B79F7C501DF91CF911F910F9126
:10023000FF90EF90DF90CF90BF90AF900895833004
:1002400081F028F4813099F08230A9F00895873048
:10025000A9F08830C9F08430B1F4809180008F7D9E
:1002600003C0809180008F7780938000089584B5CB
:100270008F7784BD089584B58F7DFBCF8091B000CA
:100280008F778093B00008958091B0008F7DF9CF73
:10029000CF93DF93282F30E0F901E255FF4F84918F
:1002A000F901E656FF4FD491F901EA57FF4FC49187
:1002B000CC23A1F081110E941F01EC2FF0E0EE0F82
:1002C000FF1FE458FF4FA591B491EC91ED2381E01D
:1002D00090E009F480E0DF91CF91089580E090E014
:1002E000FACF1F93CF93DF93282F30E0F901E25527
:1002F000FF4F8491F901E656FF4FD491F901EA5777
:10030000FF4FC491CC23A9F0162F81110E941F0129
:10031000EC2FF0E0EE0FFF1FEE58FF4FA591B491C8
:100320008FB7F894EC91111108C0D095DE23DC93BF
:100330008FBFDF91CF911F910895DE2BF8CF1F93D0
:10034000CF93DF93182FD92F8091A20260E0C1E0F4
:10035000811102C061E0C0E0809196020E947101AB
:1003600020919A0230919B02129FC001139F900D21
:1003700011248230910538F0880F991F880F991F3A
:1003800005970197F1F76C2F809196020E947101F9
:1003900020919A0230919B02D29FC001D39F900D71
:1003A00011248230910538F0880F991F880F991F0A
:1003B00005970197F1F7DF91CF911F910895CF93A2
:1003C000DF9390E0FC01E656FF4F24918A579F4F40
:1003D000FC0184918823D1F090E0880F991FFC01E3
:1003E000E859FF4FA591B491FC01EE58FF4FC5911C
:1003F000D491623071F49FB7F8943C91822F80952C
:1004000083238C93E8812E2B28839FBFDF91CF918C
:1004100008958FB7F894EC912E2B2C938FBFF6CFC5
:100420003FB7F89480916F0290917002A091710291
:10043000B091720226B5A89B05C02F3F19F0019616
:10044000A11DB11D3FBFBA2FA92F982F8827BC012E
:10045000CD01620F711D811D911D42E0660F771F56
:10046000881F991F4A95D1F708958F929F92AF9256
:10047000BF92CF92DF92EF92FF924B015C010E94FC
:1004800010026B017C010E9410026C197D098E091B
:100490009F09683E734081059105A8F321E0821A07
:1004A0009108A108B10888EEC80E83E0D81EE11CAF
:1004B000F11C81149104A104B10429F7FF90EF907D
:1004C000DF90CF90BF90AF909F908F900895089548
:1004D00090E080E0089561152AEC72072AE982070E
:1004E0002BE3920738F0465F5F4F509378024093BA
:1004F00077020895611521EE720725EF820725E046
:10050000920718F0475F5F4FF0CF603826E9720717
:1005100028E98207910518F0485F5F4FE6CF603405
:1005200022E472072FE08207910518F0495F5F4FC0
:10053000DCCF603A26E8720721E08207910518F0C7
:100540004A5F5F4FD2CF603127E272078105910584
:1005500018F04B5F5F4FC9CF683E23E072078105FB
:10056000910518F04C5F5F4FC0CF6436710581056F
:10057000910518F04D5F5F4FB8CF6A307105810566
:10058000910518F04E5F5F4FB0CF4F5F5F4FADCF1B
:100590008F929F92AF92BF920F931F93CF93DF934F
:1005A000CDB7DEB7A1970FB6F894DEBF0FBECDBFB3
:1005B00019A2423008F44AE08E010F5D1F4F842ECD
:1005C000912CB12CA12CA50194010E940F0FE62FB4
:1005D000B901CA01EA3044F5E05DD801EE938D011E
:1005E000232B242B252B79F790E080E0109769F0DE
:1005F000FD0101900020E9F73197AF014A1B5B0B29
:10060000BD0183EA92E00E94F200A1960FB6F89431
:10061000DEBF0FBECDBFDF91CF911F910F91BF9075
:10062000AF909F908F900895E95CD7CFFC01019027
:100630000020E9F73197AF01481B590BBC0183EA51
:1006400092E00C94F200CF93DF93EC0160E08E8196
:100650000E94710161E08E810E94710160E08E81D3
:100660000E9471018BE891E00197F1F7DF91CF9142
:100670000895CF92DF92EF92FF920F931F93CF9343
:10068000DF936C017C0187E0E80EF11CD0E0C0E054
:10069000062F10E0B8010C2E02C0759567950A94DC
:1006A000E2F76170F70181917F010E94710121964B
:1006B000C430D10579F7C601DF91CF911F910F9119
:1006C000FF90EF90DF90CF900C942303CF92DF92B6
:1006D000EF92FF920F931F93CF93DF93EC01F62ECF
:1006E000642F8C810E9471018D818F3F19F060E031
:1006F0000E9471010F2D10E08F8584FF25C06E01CF
:1007000087E0C80ED11CF12CE12CB8010E2C02C0E0
:10071000759567950A94E2F76170F60181916F0112
:100720000E947101FFEFEF1AFF0A88E0E816F1045A
:1007300061F7CE01DF91CF911F910F91FF90EF9064
:10074000DF90CF900C942303B80184E075956795F2
:100750008A95E1F7CE010E9439036F2DCE01DF911A
:10076000CF911F910F91FF90EF90DF90CF900C945D
:10077000390340E0682F83EA92E00C94660381E03D
:100780000E94B9038BE39FE10197F1F70895CF939E
:10079000DF93823029F49091B20298609093B20274
:1007A0008093B6021092B70280E48093B80280E191
:1007B0008093B90280E58093BA0261E08091A7023C
:1007C0000E94DF018091A8028F3F19F061E00E9432
:1007D000DF0161E08091A9020E94DF01C3EAD2E05B
:1007E0009E01235A32408091B20284FD0BC084E006
:1007F00090E021962817390744F461E08E810E9429
:10080000DF01EECF88E090E0F4CF8BE39DE001972D
:10081000F1F760E08091A7020E94710160E0809191
:10082000A9020E9471018091A8028F3F19F060E037
:100830000E9471018091B20284FD34C063E083EABA
:1008400092E00E943903CBE4D6E4CE010197F1F7A0
:1008500063E083EA92E00E9439032197F1F763E0B5
:1008600083EA92E00E94390383E592E00197F1F771
:1008700062E083EA92E00E9439038091B2028062D2
:100880000E94B90384E08093B3028CE00E94B90314
:100890000E94BF0382E08093B40286E0DF91CF9193
:1008A0000C94B90380620E94B9038BE496E401972B
:1008B000F1F78091B20280620E94B90383E592E071
:1008C0000197F1F78091B20280620E94B903D5CFFF
:1008D0009091B602691710F06FEF690FE62FF0E004
:1008E000ED55FD4F9489890F80680C94B90341E060
:1008F0000E94660381E090E00895CF92DF92EF922C
:10090000FF926B017C0141E06DE283EA92E00E947C
:10091000660366277727CB016C197D098E099F092D
:100920004AE00E94C8020196FF90EF90DF90CF90BE
:100930000895BC01990F880B990B97FD0C947D04C9
:100940004AE00C94C80260E084E00E94680488E7F2
:1009500091E00E94160360E08BE00E9468048091A1
:10096000790290917A0201960E94990461E083E0F5
:100970000E946804E0917902F0917A02EE0FFF1F65
:10098000EE0FFF1FE05BFE4F6081718182819381DA
:100990004AE00E94C80286E00E944801892B11F5B6
:1009A00086E00E944801892BD9F3809179029091C9
:1009B0007A02059731F48FEF9FEF90937A0280933C
:1009C00079028091790290917A02019690937A024D
:1009D0008093790268EC70E080E090E00E9435023C
:1009E0000E94BF0387E00E944801892B11F587E030
:1009F0000E944801892BD9F38091790290917A0263
:100A0000892B31F486E090E090937A02809379020A
:100A10008091790290917A02019790937A02809363
:100A2000790268EC70E080E090E00E9435020C945E
:100A3000BF0308952F923F924F925F926F927F92E1
:100A40008F929F92AF92BF92CF92DF92EF92FF92DE
:100A50000F931F93CF93DF93CDB7DEB765970FB694
:100A6000F894DEBF0FBECDBF0E9410026B017C0167
:100A700080916602909167022601481A590A4DEC4E
:100A8000441640E1540608F4E0C08091640290915D
:100A90006502009789F02091DE013091DF0112019B
:100AA000221A330A910137FE03C03195219531098D
:100AB000283C31050CF0C5C00196909365028093E7
:100AC0006402029709F0BDC092EC692E90E0792E85
:100AD00001E010E02090DC013090DD013B862A86A9
:100AE00049E050E0B301CE0101960E94F20E8B81E5
:100AF0006C81681708F4682F70E08091DE01909196
:100B0000DF010E94FB0E9B01409100015091010109
:100B1000649FC001659F900D749F900D112464E641
:100B200070E00E94FB0E8985A1E0B0E0882311F0FF
:100B3000A2E0B0E08D81829FA001839F500D11241F
:100B40005D874C878E81829F1001839F300C11241A
:100B50003F862E868F81829FA001839F500D112496
:100B6000598B488B8885829F1001839F300C1124FC
:100B70003B8A2A8AFD01EE0FFF1FE252FE4F812CB5
:100B8000912C54014A855B85415051095D8B4C8BFA
:100B90008C899D89A817B90708F040C0880C991C5A
:100BA000AA1CBB1C80819181AC012C843D8442191C
:100BB000530957FF03C051954195510946175707EF
:100BC00070F4428153812E843F844219530957FFA8
:100BD00003C051954195510946175707E0F04889E0
:100BE0005989841B950B97FF03C0919581959109B5
:100BF00086179707C8F4828193812A883B888219D7
:100C0000930997FF03C091958195910986179707DE
:100C100058F4689480F812963496BACF4A855B856A
:100C20004830510508F053C00F5F1F4F59E0650E63
:100C3000711C0D30110509F04DCF10926502109214
:100C400064021092DD011092DC018091DC01909130
:100C5000DD018334910540F01092DD011092DC013A
:100C600010926502109264028091DC019091DD0186
:100C70009C012F5F3F4F3093DD012093DC01880FF3
:100C8000991FFC01E252FE4F51824082C0926602DF
:100C9000D0926702E0926802F092690265960FB600
:100CA000F894DEBF0FBECDBFDF91CF911F910F91A2
:100CB000FF90EF90DF90CF90BF90AF909F908F907C
:100CC0007F906F905F904F903F902F90089580920B
:100CD000900290929102A0929202B09293022C887C
:100CE0003D883694279430928F0220928E02309362
:100CF00076022093750210937402009373029DCFC5
:100D00001F920F920FB60F9211242F933F938F9340
:100D10009F93AF93BF9380916B0290916C02A091CF
:100D20006D02B0916E0230916A0223E0230F2D37DD
:100D300058F50196A11DB11D20936A0280936B02A4
:100D400090936C02A0936D02B0936E0280916F023B
:100D500090917002A0917102B09172020196A11D52
:100D6000B11D80936F0290937002A0937102B093B3
:100D70007202BF91AF919F918F913F912F910F90F0
:100D80000FBE0F901F90189526E8230F0296A11D05
:100D9000B11DD2CF1F920F920FB60F9211242F9335
:100DA0003F934F935F936F937F938F939F93AF93F3
:100DB000BF93EF93FF93E0916A01F0916B01099566
:100DC000FF91EF91BF91AF919F918F917F916F9123
:100DD0005F914F913F912F910F900FBE0F901F90F9
:100DE00018951F920F920FB60F9211242F933F93D5
:100DF0004F935F936F937F938F939F93AF93BF9323
:100E0000EF93FF93E0916801F09169010995FF91DB
:100E1000EF91BF91AF919F918F917F916F915F9172
:100E20004F913F912F910F900FBE0F901F901895EB
:100E3000CF93DF9300D000D000D0CDB7DEB7789449
:100E400084B5826084BD84B5816084BD85B58260CF
:100E500085BD85B5816085BD80916E008160809380
:100E60006E001092810080918100826080938100E9
:100E700080918100816080938100809180008160F9
:100E8000809380008091B10084608093B100809154
:100E9000B00081608093B00080917A00846080937C
:100EA0007A0080917A00826080937A0080917A0043
:100EB000816080937A0080917A00806880937A00C4
:100EC0001092C10062E086E00E94DF0162E087E0EC
:100ED0000E94DF0162E08EE00E94DF0162E08FE0AD
:100EE0000E94DF0110929502109294020E94C200AB
:100EF00080E190E0909397028093960261E00E94D7
:100F0000DF0182E00E94C7030E94BF0360E083E02C
:100F10000E9468048FE791E00E94160364EF71E07D
:100F200080E090E00E94350260E083E00E94680467
:100F300088E891E00E94160361E083E00E94680463
:100F400082E991E00E94160364EF71E080E090E096
:100F50000E9435020E94BF03412C512C3201439460
:100F6000CC24CA94DC2C22242394312C809190022E
:100F700090919102A0919202B0919302892B8A2BB9
:100F80008B2B09F442C08091900290919102A09124
:100F90009202B091930280938A0290938B02A09365
:100FA0008C02B0938D0280918E0290918F02B0E0FE
:100FB000A0E08093840290938502A0938602B09370
:100FC00087028091750290917602B0E0A0E0809354
:100FD000800290938102A0938202B0938302809159
:100FE000730290917402B0E0A0E080937C02909331
:100FF0007D02A0937E02B0937F0210929002109225
:101000009102109292021092930240918A025091A2
:101010008B0260918C0270918D02809150019091B1
:101020005101A0915201B091530184179507A60771
:10103000B70709F450C08091540190915501A091D7
:101040005601B0915701481759076A077B0709F401
:1010500042C08091580190915901A0915A01B091DC
:101060005B01481759076A077B07A9F180915C016A
:1010700090915D01A0915E01B0915F014817590701
:101080006A077B0741F18091600190916101A09115
:101090006201B0916301481759076A077B07D9F0CD
:1010A0004115510561057105B1F08091880290915B
:1010B000890201969093890280938802833091057A
:1010C00009F494C10CF0D8C08130910509F41CC119
:1010D000029709F452C10E94A3048EE00E944801C5
:1010E000892B09F05BC20E94BF038EE00E94480179
:1010F0008C01892B09F050C260E082E00E946804F4
:101100008AE991E00E94160361E084E00E9468048D
:1011100088E791E00E94160361E08BE00E9468047A
:101120006091790270917A026F5F7F4F072E000CF9
:10113000880B990B97FF05C20E947D04E09179020C
:10114000F0917A02EE0FFF1FEE0FFF1FE85FFE4FD8
:1011500080819181A281B3819C01215031092C3081
:10116000310520F081E090E0A0E0B0E0019739E0A7
:10117000389FB001399F700D11246E537F4F49E0A5
:1011800050E08AE992E00E94F20E809179029091FB
:101190007A02880F991F880F991FFC01E05EFE4FAD
:1011A0002081318130939B0220939A0220919602F4
:1011B000309197022F3F3F4F09F4E7C1FC01E85CF3
:1011C000FE4F208131814281538129833A834B83B1
:1011D0005C83805B9E4FFC0180809180A280B38005
:1011E00020919402309195023E832D832F3F320748
:1011F000A9F08D81823070F4F901FF27813009F464
:10120000A4C1E898EE0FFF1FE859FE4F81EF90E070
:1012100091838083D0929502C0929402809198022B
:1012200090919902081719070CF09FC1E980FA8084
:1012300091E0E91AF108F7FC8FC181E090E0A0E0AD
:10124000B0E00E2C04C0880F991FAA1FBB1F0A9480
:10125000D2F788219921AA21BB21892B8A2B8B2B9C
:1012600009F475C18091A0029091A1020E949F0192
:10127000E1E0EE1AF108DFCF8530910509F428C1CD
:101280000CF4EDC0069709F026CF4093600150930F
:101290006101609362017093630180918402909177
:1012A0008502A0918602B0918702809348019093B5
:1012B0004901A0934A01B0934B0180918002909123
:1012C0008102A0918202B0918302809330019093B9
:1012D0003101A0933201B093330180917C0290914F
:1012E0007D02A0917E02B0917F02809318019093BD
:1012F0001901A0931A01B0931B0125E030E030934F
:10130000890220938802E7CE409350015093510107
:1013100060935201709353018091840290918502F1
:10132000A0918602B0918702809338019093390191
:10133000A0933A01B0933B01809180029091810289
:10134000A0918202B09183028093200190932101A9
:10135000A0932201B093230180917C0290917D02A1
:10136000A0917E02B0917F028093080190930901C1
:10137000A0930A01B0930B01AECE40935401509359
:1013800055016093560170935701809184029091AA
:101390008502A0918602B091870280933C019093D0
:1013A0003D01A0933E01B0933F0180918002909156
:1013B0008102A0918202B0918302809324019093D4
:1013C0002501A0932601B093270180917C02909182
:1013D0007D02A0917E02B0917F0280930C019093D8
:1013E0000D01A0930E01B0930F0175CE40935801EB
:1013F0005093590160935A0170935B01809184026C
:1014000090918502A0918602B0918702809340015D
:1014100090934101A0934201B093430180918002D7
:1014200090918102A0918202B09183028093280161
:1014300090932901A0932A01B0932B0180917C0203
:1014400090917D02A0917E02B0917F028093100165
:1014500090931101A0931201B09313013CCE4093DD
:101460005C0150935D0160935E0170935F01809118
:10147000840290918502A0918602B09187028093A8
:10148000440190934501A0934601B0934701809198
:10149000800290918102A0918202B0918302809398
:1014A0002C0190932D01A0932E01B0932F018091D8
:1014B0007C0290917D02A0917E02B0917F02809388
:1014C000140190931501A0931601B093170103CE58
:1014D00040936001509361016093620170936301D6
:1014E0008091840290918502A0918602B09187023A
:1014F0008093480190934901A0934A01B0934B0116
:101500008091800290918102A0918202B091830229
:101510008093300190933101A0933201B093330155
:1015200080917C0290917D02A0917E02B0917F0219
:101530008093180190931901A0931A01B0931B0195
:10154000CACD4AE00E94C802F9CDE9985BCE8091ED
:101550009E0290919F028ACE80919C0290919D0262
:101560000E949F010F5F1F4F59CE60E0809196024D
:101570000E9471012D813E812F3F320731F030935F
:101580009502209394020E94C20068EC70E080E013
:1015900090E00E943502A9CD0E94BF038FE00E9417
:1015A0004801892B09F0CEC381E080937B0268EE6D
:1015B00073E080E090E00E94350280917B028823F6
:1015C00009F4B8C30E94A30460E08EE00E9468049E
:1015D00087EA91E00E9416038EE00E9448019A83F8
:1015E0008983892B09F0B7C168EE73E080E090E051
:1015F0000E9435020E94BF0360E080E00E94680400
:1016000088E791E00E94160360E087E00E9468048A
:101610008091790290917A0201960E9499048981C1
:101620009A81892B09F0A0C161E080E00E946804E2
:101630008AEA91E00E94160361E085E00E94680456
:10164000E0917902F0917A02EE0FFF1FEE0FFF1F7B
:10165000E05BFE4F60817181828193814AE00E944C
:10166000C80286E00E944801892B09F586E00E94A5
:101670004801892BD9F349815A814330510521F41E
:101680008FEF9FEF9A838983E981FA813196FA83FC
:10169000E98368EC70E080E090E00E94350261E050
:1016A00080E00E94680484EC91E00E94160387E0C9
:1016B0000E944801892B01F587E00E944801892B8F
:1016C000D9F329813A81232B21F444E050E05A8355
:1016D000498389819A8101979A83898368EC70E0B4
:1016E00080E090E00E94350261E080E00E946804A2
:1016F00084EC91E00E9416038EE00E944801892B41
:1017000009F01BC14092040150920501609206014C
:1017100070920701309203012092020168EE73E09B
:1017200080E090E00E94350260E089E00E94680459
:1017300084ED91E00E941603E981FA81EF2B09F014
:101740005FC186E00E944801892B49F586E00E942E
:101750004801892BD9F3E0917902F0917A02EE0FDA
:10176000FF1FEE0FFF1FE05BFE4F80819181A28182
:10177000B38140910401509105016091060170917F
:101780000701840F951FA61FB71F80839183A28333
:10179000B38368EC70E080E090E00E94350287E05F
:1017A0000E944801892B49F587E00E944801892B56
:1017B000D9F3E0917902F0917A02EE0FFF1FEE0F5C
:1017C000FF1FE05BFE4F80819181A281B381409138
:1017D0000401509105016091060170910701841B7D
:1017E000950BA60BB70B80839183A283B38368EC20
:1017F00070E080E090E00E943502E0917902F09183
:101800007A02EE0FFF1FEE0FFF1FE05BFE4F6081BD
:1018100071818281938145E050E00E946B0261E01A
:1018200080E00E9468048AEA91E00E94160361E069
:1018300085E00E946804E0917902F0917A02EE0F4F
:10184000FF1FEE0FFF1FE05BFE4F60817181828101
:1018500093814AE00E94C80266E970E080E090E06F
:101860000E943502809177029091020161E0891B0C
:101870000E9468046FEF83EA92E00E94770466E9B1
:1018800070E080E090E00E9435028EE00E94480106
:10189000892B09F044C08EE00E944801892BD9F3BE
:1018A00020910401309105014091060150910701FA
:1018B000AAE0B0E00E94310F60930401709305012B
:1018C000809306019093070120910201309103015A
:1018D0002F5F3F4F309303012093020161157A4C33
:1018E0008A499B4361F44092040150920501609241
:1018F000060170920701309203012092020160E01C
:101900008EE00E94680480910201909103010E9480
:10191000990468EC70E080E090E00E9435028FE06E
:101920000E944801892B09F007CF68EE73E080E040
:1019300090E00E9435020E94BF038FE00E944801A0
:10194000892B09F059CE68EE73E080E090E00E94A8
:1019500035020E94BF038FE00E944801892B09F0E5
:101960002CCE10927B0229CEE981FA813197B9F40D
:1019700061E080E00E9468048EEA91E00E94160314
:1019800061E086E00E946804E0917902F0917A02B9
:10199000EE0FFF1FEE0FFF1FE85CFE4F5BCE2981AD
:1019A0003A8161E080E022303105A9F40E946804A8
:1019B00083EB91E00E94160361E088E00E946804D6
:1019C000E0917902F0917A02EE0FFF1FEE0FFF1FF8
:1019D000E05EFE4F3FCE0E9468048AEB91E00E94D9
:1019E000160361E08BE00E946804E0917902F091B7
:1019F0007A02EE0FFF1FEE0FFF1FE85FFE4F2ACEA9
:101A000029813A812130310509F085C086E00E94A4
:101A10004801892B49F586E00E944801892BD9F3BA
:101A2000E0917902F0917A02EE0FFF1FEE0FFF1F97
:101A3000E85CFE4F80819181A281B38140910401D5
:101A4000509105016091060170910701840F951F67
:101A5000A61FB71F80839183A283B38368EC70E0D5
:101A600080E090E00E94350287E00E944801892BC7
:101A700049F587E00E944801892BD9F3E09179026A
:101A8000F0917A02EE0FFF1FEE0FFF1FE85CFE4F92
:101A900080819181A281B38140910401509105011F
:101AA0006091060170910701841B950BA60BB70B83
:101AB00080839183A283B38368EC70E080E090E040
:101AC0000E943502E0917902F0917A02EE0FFF1F39
:101AD000EE0FFF1FE85CFE4F608171818281938170
:101AE00046E050E00E946B0261E080E00E946804E2
:101AF0008EEA91E00E94160361E086E00E9468048D
:101B0000E0917902F0917A02EE0FFF1FEE0FFF1FB6
:101B1000E85CFE4F9ACE49815A8186E042305105F9
:101B200009F084C00E944801892B49F586E00E9493
:101B30004801892BD9F3E0917902F0917A02EE0FF6
:101B4000FF1FEE0FFF1FE05EFE4F80819181A2819B
:101B5000B38140910401509105016091060170919B
:101B60000701840F951FA61FB71F80839183A2834F
:101B7000B38368EC70E080E090E00E94350287E07B
:101B80000E944801892B49F587E00E944801892B72
:101B9000D9F3E0917902F0917A02EE0FFF1FEE0F78
:101BA000FF1FE05EFE4F80819181A281B381409151
:101BB0000401509105016091060170910701841B99
:101BC000950BA60BB70B80839183A283B38368EC3C
:101BD00070E080E090E00E943502E0917902F0919F
:101BE0007A02EE0FFF1FEE0FFF1FE05EFE4F6081D7
:101BF00071818281938148E050E00E946B0261E034
:101C000080E00E94680483EB91E00E94160361E08B
:101C100088E00E946804E0917902F0917A02EE0F68
:101C2000FF1FEE0FFF1FE05EFE4F0FCE0E94480128
:101C3000892B49F586E00E944801892BD9F3E09170
:101C40007902F0917A02EE0FFF1FEE0FFF1FE85F9F
:101C5000FE4F80819181A281B38140910401509116
:101C600005016091060170910701840F951FA61F61
:101C7000B71F80839183A283B38368EC70E080E018
:101C800090E00E94350287E00E944801892B49F5C7
:101C900087E00E944801892BD9F3E0917902F09105
:101CA0007A02EE0FFF1FEE0FFF1FE85FFE4F8081ED
:101CB0009181A281B381409104015091050160910D
:101CC000060170910701841B950BA60BB70B80834F
:101CD0009183A283B38368EC70E080E090E00E947F
:101CE0003502E0917902F0917A02EE0FFF1FEE0FBC
:101CF000FF1FE85FFE4F60817181828193814BE01D
:101D000050E00E946B0261E080E00E9468048AEB70
:101D100091E00E94160361E08BE00E946804E0916C
:101D20007902F0917A02EE0FFF1FEE0FFF1FE85FBE
:101D3000FE4F8BCD68EE73E080E090E00E943502AC
:101D40000E94BF0380E090E0892B09F40FC90E9434
:101D500000000CC90F931F93CF93DF93C4E9D2E027
:101D60000FEF1FEF1B830A838AE090E09D838C8333
:101D700049E050E062EC70E08AE992E00E94F20EE5
:101D8000198308838CE390E0909301018093000114
:101D9000109290021092910210929202109293026D
:101DA000E3EAF2E01382128280E791E0918380837C
:101DB0008DE084838FEF85838CE086838BE087833F
:101DC0008AE0808789E0818788E08287138614868D
:101DD00015861686178681E0DF91CF911F910F91AE
:101DE0000C94C703FB01DC0102C005900D92415029
:101DF0005040D8F70895AA1BBB1B51E107C0AA1F8A
:101E0000BB1FA617B70710F0A61BB70B881F991F9B
:101E10005A95A9F780959095BC01CD010895A1E24E
:101E20001A2EAA1BBB1BFD010DC0AA1FBB1FEE1F54
:101E3000FF1FA217B307E407F50720F0A21BB30B9F
:101E4000E40BF50B661F771F881F991F1A9469F71B
:101E500060957095809590959B01AC01BD01CF0177
:101E600008950E94420FA59F900DB49F900DA49FCE
:101E7000800D911D11240895EE0FFF1F0590F49120
:101E8000E02D0994A29FB001B39FC001A39F700DE4
:101E9000811D1124911DB29F700D811D1124911D72
:101EA0000895F894FFCF3C000100010000000000FD
:101EB00000000B00000016000000210000002C00B4
:101EC000000000000000000000000B0000001600F1
:101ED0000000210000002C000000000000000000B5
:101EE00000000B00000016000000210000002C0084
:101EF000000000000000000000000B0000001600C1
:101F00000000210000002C00000000000000F10093
:101F1000F100000000007704F20068026702436FDE
:101F20006469676F0042792020474D42570034337F
:101F3000332C39324D687A004445434F44455200B2
:101F40005452414E534D4954494E444F004346006C
:101F5000436F640062697473006C656E6774680037
:101F600070726F746F636F6C6F00202020202020D0
:101F700020202020202020202000454449542031CA
:021F800000005F
:107E0000112484B714BE81FFF0D085E080938100F7
:107E100082E08093C00088E18093C10086E0809377
:107E2000C20080E18093C4008EE0C9D0259A86E02C
:107E300020E33CEF91E0309385002093840096BBD3
:107E4000B09BFECF1D9AA8958150A9F7CC24DD24C4
:107E500088248394B5E0AB2EA1E19A2EF3E0BF2EE7
:107E6000A2D0813461F49FD0082FAFD0023811F036
:107E7000013811F484E001C083E08DD089C08234E0
:107E800011F484E103C0853419F485E0A6D080C0E4
:107E9000853579F488D0E82EFF2485D0082F10E0AE
:107EA000102F00270E291F29000F111F8ED06801E7
:107EB0006FC0863521F484E090D080E0DECF843638
:107EC00009F040C070D06FD0082F6DD080E0C81688
:107ED00080E7D80618F4F601B7BEE895C0E0D1E017
:107EE00062D089930C17E1F7F0E0CF16F0E7DF06D8
:107EF00018F0F601B7BEE89568D007B600FCFDCFD4
:107F0000A601A0E0B1E02C9130E011968C91119780
:107F100090E0982F8827822B932B1296FA010C0160
:107F200087BEE89511244E5F5F4FF1E0A038BF0790
:107F300051F7F601A7BEE89507B600FCFDCF97BE46
:107F4000E89526C08437B1F42ED02DD0F82E2BD052
:107F50003CD0F601EF2C8F010F5F1F4F84911BD097
:107F6000EA94F801C1F70894C11CD11CFA94CF0C13
:107F7000D11C0EC0853739F428D08EE10CD085E9AC
:107F80000AD08FE07ACF813511F488E018D01DD067
:107F900080E101D065CF982F8091C00085FFFCCF94
:107FA0009093C60008958091C00087FFFCCF809118
:107FB000C00084FD01C0A8958091C6000895E0E648
:107FC000F0E098E1908380830895EDDF803219F02E
:107FD00088E0F5DFFFCF84E1DECF1F93182FE3DFCA
:107FE0001150E9F7F2DF1F91089580E0E8DFEE27F6
:047FF000FF270994CA
:027FFE00040479
:00000001FF
