:020000040000FA
:100000000C9498000C9494060C946D060C94C0000B
:100010000C94C0000C94C0000C94C0000C94C00060
:100020000C94C0000C94C0000C94C0000C94C00050
:100030000C94C0000C94C0000C94C0000C94C00040
:100040000C9423060C94C0000C94C0000C94C000C7
:100050000C94C0000C94C0000C94C0000C94C00020
:100060000C94C0000C94C000000000002400270085
:100070002A0000000000250028002B0000000000DE
:1000800023002600290004040404040404040202DA
:100090000202020203030303030301020408102007
:1000A0004080010204081020010204081020000012
:1000B0000008000201000003040700000000000027
:1000C00000005E01011F01030301008A02010A0111
:1000D0000202010064001E47040B0906007C0101B6
:1000E000060103030100F401060E0102020100C231
:1000F00001170101020201019600023E01060601FC
:1001000000C80003820710031000C8008207100710
:100110001003016D01120103010103010E0124010D
:100120000102020101400124010102020101C00D8E
:1001300011241FBECFEFD8E0DEBFCDBF11E0A0E09D
:10014000B1E0E2EDFCE102C005900D92A23FB107E3
:10015000D9F722E0A2EFB1E001C01D92AF3CB20797
:10016000E1F710E0C8E9D0E004C02197FE010E9449
:10017000520EC739D107C9F70E94BB060C94670E0F
:100180000C940000E091A802F091A902EF3FFE0755
:1001900039F11092A4021092A5021092A6021092B8
:1001A000A7021092A3021092A2022E2FE230C0F4F6
:1001B000FF27EE0FFF1FEA59FE4F8DEB94E091836E
:1001C000808380916900213031F08C7F8160809341
:1001D0006900E89A0895837F846080936900E99AB2
:1001E00008950895AF92BF92CF92DF92EF92FF925F
:1001F0000F931F93CF93DF936C017B018B01040F4F
:10020000151FEB015E01AE18BF08C017D10759F0EA
:100210006991D601ED91FC910190F081E02DC6012C
:100220000995892B79F7C501DF91CF911F910F9126
:10023000FF90EF90DF90CF90BF90AF900895833004
:1002400081F028F4813099F08230A9F00895873048
:10025000A9F08830C9F08430B1F4809180008F7D9E
:1002600003C0809180008F7780938000089584B5CB
:100270008F7784BD089584B58F7DFBCF8091B000CA
:100280008F778093B00008958091B0008F7DF9CF73
:10029000CF93DF93282F30E0F901E255FF4F84918F
:1002A000F901E656FF4FD491F901EA57FF4FC49187
:1002B000CC23A1F081110E941F01EC2FF0E0EE0F82
:1002C000FF1FE458FF4FA591B491EC91ED2381E01D
:1002D00090E009F480E0DF91CF91089580E090E014
:1002E000FACF1F93CF93DF93282F30E0F901E25527
:1002F000FF4F8491F901E656FF4FD491F901EA5777
:10030000FF4FC491CC23A9F0162F81110E941F0129
:10031000EC2FF0E0EE0FFF1FEE58FF4FA591B491C8
:100320008FB7F894EC91111108C0D095DE23DC93BF
:100330008FBFDF91CF911F910895DE2BF8CF1F93D0
:10034000CF93DF93182FD92F8091B60260E0C1E0E0
:10035000811102C061E0C0E08091AA020E94710197
:100360002091AE023091AF02129FC001139F900DF9
:1003700011248230910538F0880F991F880F991F3A
:1003800005970197F1F76C2F8091AA020E947101E5
:100390002091AE023091AF02D29FC001D39F900D49
:1003A00011248230910538F0880F991F880F991F0A
:1003B00005970197F1F7DF91CF911F910895CF93A2
:1003C000DF9390E0FC01E656FF4F24918A579F4F40
:1003D000FC0184918823D1F090E0880F991FFC01E3
:1003E000E859FF4FA591B491FC01EE58FF4FC5911C
:1003F000D491623071F49FB7F8943C91822F80952C
:1004000083238C93E8812E2B28839FBFDF91CF918C
:1004100008958FB7F894EC912E2B2C938FBFF6CFC5
:100420003FB7F8948091850290918602A09187024F
:10043000B091880226B5A89B05C02F3F19F0019600
:10044000A11DB11D3FBFBA2FA92F982F8827BC012E
:10045000CD01620F711D811D911D42E0660F771F56
:10046000881F991F4A95D1F708958F929F92AF9256
:10047000BF92CF92DF92EF92FF924B015C010E94FC
:1004800010026B017C010E9410026C197D098E091B
:100490009F09683E734081059105A8F321E0821A07
:1004A0009108A108B10888EEC80E83E0D81EE11CAF
:1004B000F11C81149104A104B10429F7FF90EF907D
:1004C000DF90CF90BF90AF909F908F900895089548
:1004D00090E080E008958F929F92AF92BF920F9329
:1004E0001F93CF93DF93CDB7DEB7A1970FB6F894E4
:1004F000DEBF0FBECDBF19A2423008F44AE08E0124
:100500000F5D1F4F842E912CB12CA12CA5019401BD
:100510000E94250EE62FB901CA01EA3044F5E05DDC
:10052000D801EE938D01232B242B252B79F790E016
:1005300080E0109769F0FD0101900020E9F7319704
:10054000AF014A1B5B0BBD0187EB92E00E94F200FA
:10055000A1960FB6F894DEBF0FBECDBFDF91CF914D
:100560001F910F91BF90AF909F908F900895E95C7D
:10057000D7CFFC0101900020E9F73197AF01481B6C
:10058000590BBC0187EB92E00C94F200CF93DF9300
:10059000EC0160E08E810E94710161E08E810E9419
:1005A000710160E08E810E9471018BE891E00197FA
:1005B000F1F7DF91CF910895CF92DF92EF92FF9202
:1005C0000F931F93CF93DF936C017C0187E0E80EBC
:1005D000F11CD0E0C0E0062F10E0B8010C2E02C0E4
:1005E000759567950A94E2F76170F70181917F0133
:1005F0000E9471012196C430D10579F7C601DF91BF
:10060000CF911F910F91FF90EF90DF90CF900C94BE
:10061000C602CF92DF92EF92FF920F931F93CF9378
:10062000DF93EC01F62E642F8C810E9471018D8185
:100630008F3F19F060E00E9471010F2D10E08F854F
:1006400084FF25C06E0187E0C80ED11CF12CE12C7F
:10065000B8010E2C02C0759567950A94E2F7617097
:10066000F60181916F010E947101FFEFEF1AFF0AFD
:1006700088E0E816F10461F7CE01DF91CF911F9178
:100680000F91FF90EF90DF90CF900C94C602B801CD
:1006900084E0759567958A95E1F7CE010E94DC02AA
:1006A0006F2DCE01DF91CF911F910F91FF90EF90B1
:1006B000DF90CF900C94DC0240E0682F87EB92E053
:1006C0000C94090381E00E945C038BE39FE1019796
:1006D000F1F70895CF93DF93823029F49091C60209
:1006E00098609093C6028093CA021092CB0280E475
:1006F0008093CC0280E18093CD0280E58093CE028E
:1007000061E08091BB020E94DF018091BC028F3FBB
:1007100019F061E00E94DF0161E08091BD020E945A
:10072000DF01C7EBD2E09E01275B32408091C60219
:1007300084FD0BC084E090E021962817390744F42B
:1007400061E08E810E94DF01EECF88E090E0F4CF7F
:100750008BE39DE00197F1F760E08091BB020E947E
:10076000710160E08091BD020E9471018091BC0224
:100770008F3F19F060E00E9471018091C60284FDF4
:1007800034C063E087EB92E00E94DC02CBE4D6E465
:10079000CE010197F1F763E087EB92E00E94DC0263
:1007A0002197F1F763E087EB92E00E94DC0283E59A
:1007B00092E00197F1F762E087EB92E00E94DC02A1
:1007C0008091C60280620E945C0384E08093C7022D
:1007D0008CE00E945C030E94620382E08093C80266
:1007E00086E0DF91CF910C945C0380620E945C03F1
:1007F0008BE496E40197F1F78091C60280620E9433
:100800005C0383E592E00197F1F78091C602806274
:100810000E945C03D5CF9091CA02691710F06FEF68
:10082000690FE62FF0E0E954FD4F9489890F806845
:100830000C945C0341E00E94090381E090E008957C
:10084000CF92DF92EF92FF926B017C0141E06DE26B
:1008500087EB92E00E94090366277727CB016C198A
:100860007D098E099F094AE00E946B020196FF9064
:10087000EF90DF90CF900895BC01990F880B990BF2
:1008800097FD0C9420044AE00C946B0260E084E035
:100890000E940B0486E791E00E94B90260E08BE0C1
:1008A0000E940B0480918D0290918E0201960E940D
:1008B0003C0461E083E00E940B04E0918D02F09122
:1008C0008E02EE0FFF1FEE0FFF1FE25BFE4F6081F7
:1008D0007181828193814AE00E946B0284E00E94D0
:1008E0004801892B11F584E00E944801892BD9F336
:1008F00080918D0290918E02059731F48FEF9FEFDA
:1009000090938E0280938D0280918D0290918E0241
:10091000019690938E0280938D0268EC70E080E0E7
:1009200090E00E9435020E94620385E00E94480127
:10093000892B11F585E00E944801892BD9F380911C
:100940008D0290918E02892B31F486E090E0909395
:100950008E0280938D0280918D0290918E0201977C
:1009600090938E0280938D0268EC70E080E090E0BE
:100970000E9435020C94620308952F923F924F9289
:100980005F926F927F928F929F92AF92BF92CF921F
:10099000DF92EF92FF920F931F93CF93DF93CDB728
:1009A000DEB765970FB6F894DEBF0FBECDBF0E94CD
:1009B00010026B017C0180917C0290917D022601E6
:1009C000481A590A4DEC441640E1540608F4E0C0B8
:1009D00080917A0290917B02009789F02091F40136
:1009E0003091F5011201221A330A910137FE03C03A
:1009F000319521953109283C31050CF0C5C001968F
:100A000090937B0280937A02029709F0BDC092EC2A
:100A1000692E90E0792E01E010E02090F2013090F4
:100A2000F3013B862A8649E050E0B301CE010196EE
:100A30000E94080E8B816C81681708F4682F70E0A3
:100A40008091F4019091F5010E94110E9B0140915B
:100A5000000150910101649FC001659F900D749F3A
:100A6000900D112464E670E00E94110E8985A1E0CA
:100A7000B0E0882311F0A2E0B0E08D81829FA00158
:100A8000839F500D11245D874C878E81829F1001BA
:100A9000839F300C11243F862E868F81829FA00178
:100AA000839F500D1124598B488B8885829F10019C
:100AB000839F300C11243B8A2A8AFD01EE0FFF1F11
:100AC000EC50FE4F812C912C54014A855B8541509E
:100AD00051095D8B4C8B8C899D89A817B90708F04B
:100AE00040C0880C991CAA1CBB1C80819181AC0160
:100AF0002C843D844219530957FF03C051954195F9
:100B000051094617570770F4428153812E843F8460
:100B10004219530957FF03C0519541955109461792
:100B20005707E0F048895989841B950B97FF03C04C
:100B300091958195910986179707C8F482819381D1
:100B40002A883B888219930997FF03C09195819564
:100B500091098617970758F4689480F8129634968E
:100B6000BACF4A855B854830510508F053C00F5F06
:100B70001F4F59E0650E711C0D30110509F04DCF66
:100B800010927B0210927A021092F3011092F201FD
:100B90008091F2019091F3018334910540F010921D
:100BA000F3011092F20110927B0210927A0280916E
:100BB000F2019091F3019C012F5F3F4F3093F301BD
:100BC0002093F201880F991FFC01EC50FE4F5182D7
:100BD0004082C0927C02D0927D02E0927E02F0922E
:100BE0007F0265960FB6F894DEBF0FBECDBFDF91D2
:100BF000CF911F910F91FF90EF90DF90CF90BF901A
:100C0000AF909F908F907F906F905F904F903F90AC
:100C10002F9008958092A4029092A502A092A6021D
:100C2000B092A7022C883D88369427943092A30274
:100C30002092A20230938C0220938B0210938A029E
:100C4000009389029DCF1F920F920FB60F9211242D
:100C50002F933F938F939F93AF93BF938091810284
:100C600090918202A0918302B0918402309180021F
:100C700023E0230F2D3758F50196A11DB11D2093B8
:100C800080028093810290938202A0938302B093AA
:100C900084028091850290918602A0918702B09192
:100CA00088020196A11DB11D809385029093860252
:100CB000A0938702B0938802BF91AF919F918F91CB
:100CC0003F912F910F900FBE0F901F90189526E81F
:100CD000230F0296A11DB11DD2CF1F920F920FB606
:100CE0000F9211242F933F934F935F936F937F93B2
:100CF0008F939F93AF93BF93EF93FF93E09168011E
:100D0000F09169010995FF91EF91BF91AF919F918A
:100D10008F917F916F915F914F913F912F910F90A4
:100D20000FBE0F901F9018951F920F920FB60F9243
:100D300011242F933F934F935F936F937F938F93E0
:100D40009F93AF93BF93EF93FF93E0916601F09170
:100D500067010995FF91EF91BF91AF919F918F919D
:100D60007F916F915F914F913F912F910F900FBEA7
:100D70000F901F901895CF93DF9300D000D000D034
:100D8000CDB7DEB7789484B5826084BD84B58160C8
:100D900084BD85B5826085BD85B5816085BD809146
:100DA0006E00816080936E001092810080918100BE
:100DB00082608093810080918100816080938100B6
:100DC000809180008160809380008091B100846078
:100DD0008093B1008091B00081608093B0008091D9
:100DE0007A00846080937A0080917A008260809398
:100DF0007A0080917A00816080937A0080917A00F5
:100E0000806880937A001092C10062E084E00E94C2
:100E1000DF0162E085E00E94DF0162E086E00E947F
:100E2000DF0162E087E00E94DF011092A9021092C8
:100E3000A8020E94C2008FE090E09093AB028093E2
:100E4000AA0261E00E94DF0182E00E946A030E9420
:100E5000620360E083E00E940B048DE791E00E9452
:100E6000B90264EF71E080E090E00E94350260E03A
:100E700083E00E940B0486E891E00E94B90261E0E1
:100E800083E00E940B0480E991E00E94B90264EFC4
:100E900071E080E090E00E9435020E94620371EFF1
:100EA000C72E70E0D72E412C512C320143942224BE
:100EB0002A94322C8091A4029091A502A091A602BE
:100EC000B091A702892B8A2B8B2B09F442C0809109
:100ED000A4029091A502A091A602B091A7028093CE
:100EE0009E0290939F02A093A002B093A1028091D2
:100EF000A2029091A302B0E0A0E0809398029093A8
:100F00009902A0939A02B0939B0280918B029091D8
:100F10008C02B0E0A0E08093940290939502A0939D
:100F20009602B09397028091890290918A02B0E074
:100F3000A0E08093900290939102A0939202B093CC
:100F400093021092A4021092A5021092A60210928F
:100F5000A70240919E0250919F026091A002709161
:100F6000A10280914E0190914F01A0915001B0914A
:100F7000510184179507A607B70709F450C080915F
:100F8000520190915301A0915401B091550148171D
:100F900059076A077B0709F442C080915601909176
:100FA0005701A0915801B0915901481759076A0794
:100FB0007B07A9F180915A0190915B01A0915C019E
:100FC000B0915D01481759076A077B0741F180918D
:100FD0005E0190915F01A0916001B091610148179D
:100FE00059076A077B07D9F041155105610571055D
:100FF000B1F080919C0290919D02019690939D0288
:1010000080939C028330910509F492C10CF0D6C004
:101010008130910509F41AC1029709F450C10E9468
:10102000460486E00E944801892B09F059C20E94BB
:10103000620386E00E9448018C01892B09F04EC2B0
:1010400060E082E00E940B0488E991E00E94B9020E
:1010500061E084E00E940B0486E791E00E94B902FF
:1010600061E08BE00E940B0460918D0270918E0212
:101070006F5F7F4F072E000C880B990B97FF03C201
:101080000E942004E0918D02F0918E02EE0FFF1F6E
:10109000EE0FFF1FEA5FFE4F80819181A281B38135
:1010A0009C01215031092C30310520F081E090E085
:1010B000A0E0B0E0019739E0389FB001399F700D92
:1010C00011246E537F4F49E050E08EEA92E00E9477
:1010D000080E80918D0290918E02880F991F880FC3
:1010E000991FFC01E25EFE4F208131813093AF02F7
:1010F0002093AE022091AA023091AB022F3F3F4FC6
:1011000009F4E5C1FC01EA5CFE4F20813181428196
:10111000538129833A834B835C83825B9E4FFC011E
:1011200080809180A280B3802091A8023091A90292
:101130003E832D832F3F320799F08D81823060F4FA
:10114000F901FF27813009F4A2C1E898EE0FFF1FD3
:10115000EA59FE4FD182C0823092A9022092A802A1
:101160008091AC029091AD02081719070CF09FC155
:10117000E980FA8051E0E51AF108F7FC8FC181E0BF
:1011800090E0A0E0B0E00E2C04C0880F991FAA1FC9
:10119000BB1F0A94D2F788219921AA21BB21892B50
:1011A0008A2B8B2B09F475C18091B4029091B50202
:1011B0000E949F0181E0E81AF108DFCF8530910598
:1011C00009F428C10CF4EDC0069709F028CF40932C
:1011D0005E0150935F0160936001709361018091A3
:1011E000980290919902A0919A02B0919B028093EB
:1011F000460190934701A0934801B0934901809123
:10120000940290919502A0919602B09197028093DA
:101210002E0190932F01A0933001B0933101809162
:10122000900290919102A0919202B09193028093CA
:10123000160190931701A0931801B093190125E0AE
:1012400030E030939D0220939C02E9CE40934E0102
:1012500050934F0160935001709351018091980217
:1012600090919902A0919A02B0919B0280933601CD
:1012700090933701A0933801B09339018091940283
:1012800090919502A0919602B091970280931E01D1
:1012900090931F01A0932001B093210180919002AF
:1012A00090919102A0919202B091930280930601D5
:1012B00090930701A0930801B0930901B0CE409329
:1012C00052015093530160935401709355018091E2
:1012D000980290919902A0919A02B0919B028093FA
:1012E0003A0190933B01A0933C01B0933D01809162
:1012F000940290919502A0919602B09197028093EA
:10130000220190932301A0932401B09325018091A1
:10131000900290919102A0919202B09193028093D9
:101320000A0190930B01A0930C01B0930D0177CEAD
:10133000409356015093570160935801709359019F
:101340008091980290919902A0919A02B0919B028B
:1013500080933E0190933F01A0934001B0934101DF
:101360008091940290919502A0919602B09197027B
:101370008093260190932701A0932801B09329011F
:101380008091900290919102A0919202B09193026B
:1013900080930E0190930F01A0931001B09311015F
:1013A0003ECE40935A0150935B0160935C01709371
:1013B0005D018091980290919902A0919A02B0915A
:1013C0009B028093420190934301A0934401B09308
:1013D00045018091940290919502A0919602B0915E
:1013E000970280932A0190932B01A0932C01B09334
:1013F0002D018091900290919102A0919202B09162
:1014000093028093120190931301A0931401B0935F
:10141000150105CE40935E0150935F01609360011A
:10142000709361018091980290919902A0919A0223
:10143000B0919B028093460190934701A09348018D
:10144000B09349018091940290919502A0919602E7
:10145000B091970280932E0190932F01A0933001B9
:10146000B09331018091900290919102A0919202EB
:10147000B09193028093160190931701A0931801E5
:10148000B0931901CCCD4AE00E946B02FBCDE998E4
:101490005DCE8091B2029091B3028ACE8091B0026B
:1014A0009091B1020E949F010F5F1F4F59CE60E0E3
:1014B0008091AA020E947101ED81FE81EF3FFE073B
:1014C00031F0F093A902E093A8020E94C20068ECF8
:1014D00070E080E090E00E943502ABCD0E94620394
:1014E00087E00E944801892B09F042C381E0809384
:1014F0008F0268EE73E080E090E00E9435028091F8
:101500008F02882309F42CC30E94460460E08EE019
:101510000E940B0485EA91E00E94B90286E00E94D5
:1015200048019A838983892B09F05AC168EE73E0D8
:1015300080E090E00E9435020E94620360E080E05B
:101540000E940B0486E791E00E94B90260E087E008
:101550000E940B0480918D0290918E0201960E9450
:101560003C0449815A81452B09F043C161E080E088
:101570000E940B0488EA91E00E94B90261E085E0D4
:101580000E940B04E0918D02F0918E02EE0FFF1F7E
:10159000EE0FFF1FE25BFE4F6081718182819381BC
:1015A0004AE00E946B0284E00E944801892BC9F442
:1015B00084E00E944801892BD9F329813A812330A4
:1015C000310521F44FEF5FEF5A83498389819A8176
:1015D00001969A83898368EC70E080E090E00E9435
:1015E000350285E00E944801892BC9F485E00E94FC
:1015F0004801892BD9F3E981FA81EF2B21F424E00A
:1016000030E03A83298349815A81415051095A83F4
:10161000498368EC70E080E090E00E94350286E04B
:101620000E944801892B09F0CDC0409202015092DE
:101630000301609204017092050168EE73E080E09E
:1016400090E00E94350260E08CE00E940B048CEE7A
:1016500091E00E94B90289819A81892B09F014C115
:1016600084E00E944801892B49F584E00E944801EA
:10167000892BD9F3E0918D02F0918E02EE0FFF1FBE
:10168000EE0FFF1FE25BFE4F80819181A281B3814B
:101690004091020150910301609104017091050194
:1016A000840F951FA61FB71F80839183A283B383E6
:1016B00068EC70E080E090E00E94350285E00E94D6
:1016C0004801892B49F585E00E944801892BD9F30F
:1016D000E0918D02F0918E02EE0FFF1FEE0FFF1FC3
:1016E000E25BFE4F80819181A281B3814091020132
:1016F000509103016091040170910501841B950BC9
:10170000A60BB70B80839183A283B38368EC70E050
:1017100080E090E00E94350261E080E00E940B04CE
:1017200088EA91E00E94B90261E085E00E940B0422
:10173000E0918D02F0918E02EE0FFF1FEE0FFF1F62
:10174000E25BFE4F60817181828193814AE00E9459
:101750006B0286E00E944801892B41F586E00E94D9
:101760004801892BD9F32091020130910301409166
:10177000040150910501AAE0B0E00E94470E6115F6
:101780003AEC73073AE983073BE3930709F4DFC1B7
:10179000609302017093030180930401909305010B
:1017A00068EC70E080E090E00E94350287E00E94E3
:1017B0004801892B09F04FCF68EE73E080E090E09C
:1017C0000E94350287E00E944801892B09F0B6CEBD
:1017D00068EE73E080E090E00E9435020E946203B0
:1017E00087E00E944801892B09F089CE10928F0270
:1017F00086CE89819A810197B9F461E080E00E94E8
:101800000B0489EB91E00E94B90261E086E00E943E
:101810000B04E0918D02F0918E02EE0FFF1FEE0F90
:10182000FF1FEA5CFE4FB8CEE981FA8161E080E0FB
:101830003297A9F40E940B048AEC91E00E94B9024D
:1018400061E088E00E940B04E0918D02F0918E022D
:10185000EE0FFF1FEE0FFF1FE25EFE4F9DCE0E94B8
:101860000B048BED91E00E94B90261E08BE00E94D5
:101870000B04E0918D02F0918E02EE0FFF1FEE0F30
:10188000FF1FEA5FFE4F88CEE981FA81319709F0A8
:1018900073C084E00E944801892B49F584E00E94CE
:1018A0004801892BD9F3E0918D02F0918E02EE0F61
:1018B000FF1FEE0FFF1FEA5CFE4F80819181A28126
:1018C000B381409102015091030160910401709134
:1018D0000501840F951FA61FB71F80839183A283E4
:1018E000B38368EC70E080E090E00E94350285E010
:1018F0000E944801892B49F585E00E944801892B07
:10190000D9F3E0918D02F0918E02EE0FFF1FEE0FE2
:10191000FF1FEA5CFE4F80819181A281B3814091DB
:101920000201509103016091040170910501841B33
:10193000950BA60BB70B80839183A283B38368ECCE
:1019400070E080E090E00E94350261E080E00E945B
:101950000B0489EB91E00E94B90261E086E00E94ED
:101960000B04E0918D02F0918E02EE0FFF1FEE0F3F
:10197000FF1FEA5CFE4FE6CE29813A8184E02230E7
:10198000310509F072C00E944801892B49F584E0B5
:101990000E944801892BD9F3E0918D02F0918E02CB
:1019A000EE0FFF1FEE0FFF1FE25EFE4F8081918161
:1019B000A281B38140910201509103016091040121
:1019C00070910501840F951FA61FB71F8083918317
:1019D000A283B38368EC70E080E090E00E9435025F
:1019E00085E00E944801892B49F585E00E94480165
:1019F000892BD9F3E0918D02F0918E02EE0FFF1F3B
:101A0000EE0FFF1FE25EFE4F80819181A281B381C4
:101A10004091020150910301609104017091050110
:101A2000841B950BA60BB70B80839183A283B38392
:101A300068EC70E080E090E00E94350261E080E0B8
:101A40000E940B048AEC91E00E94B90261E088E0F8
:101A50000E940B04E0918D02F0918E02EE0FFF1FA9
:101A6000EE0FFF1FE25EFE4F6DCE0E944801892BF4
:101A700049F584E00E944801892BD9F3E0918D0259
:101A8000F0918E02EE0FFF1FEE0FFF1FEA5FFE4F79
:101A900080819181A281B381409102015091030123
:101AA0006091040170910501840F951FA61FB71F57
:101AB00080839183A283B38368EC70E080E090E040
:101AC0000E94350285E00E944801892B49F585E096
:101AD0000E944801892BD9F3E0918D02F0918E028A
:101AE000EE0FFF1FEE0FFF1FEA5FFE4F8081918117
:101AF000A281B381409102015091030160910401E0
:101B000070910501841B950BA60BB70B8083918305
:101B1000A283B38368EC70E080E090E00E9435021D
:101B200061E080E00E940B048BED91E00E94B9021D
:101B300061E08BE00E940B04E0918D02F0918E0237
:101B4000EE0FFF1FEE0FFF1FEA5FFE4FFBCD40922F
:101B5000020150920301609204017092050120CEAF
:101B600068EE73E080E090E00E9435020E9462031C
:101B700040E050E0452B09F49DC90E9400009AC93D
:101B80000F931F93CF93DF93C8EAD2E00FEF1FEFBD
:101B90001B830A838AE090E09D838C8349E050E0B8
:101BA00062EC70E08EEA92E00E94080E19830883CE
:101BB0008CE390E090930101809300011092A402C5
:101BC0001092A5021092A6021092A702E7EBF2E093
:101BD000138212828EE691E0918380838DE084836C
:101BE0008FEF85838CE086838BE087838AE0808714
:101BF00089E0818788E08287138614861586168699
:101C0000178681E0DF91CF911F910F910C946A03A9
:101C1000FB01DC0102C005900D9241505040D8F705
:101C20000895AA1BBB1B51E107C0AA1FBB1FA61723
:101C3000B70710F0A61BB70B881F991F5A95A9F775
:101C400080959095BC01CD010895A1E21A2EAA1BA2
:101C5000BB1BFD010DC0AA1FBB1FEE1FFF1FA2175C
:101C6000B307E407F50720F0A21BB30BE40BF50B59
:101C7000661F771F881F991F1A9469F760957095E2
:101C8000809590959B01AC01BD01CF0108950E9404
:101C9000580EA59F900DB49F900DA49F800D911D8F
:101CA00011240895EE0FFF1F0590F491E02D099483
:101CB000A29FB001B39FC001A39F700D811D11248D
:101CC000911DB29F700D811D1124911D0895F894EE
:101CD000FFCF3C0001000000000000000B000000EE
:101CE00016000000210000002C0000000000000091
:101CF000000000000B0000001600000021000000A2
:101D00002C00000000000000000000000B0000009C
:101D100016000000210000002C0000000000000060
:101D2000000000000B000000160000002100000071
:101D30002C00000000000000F100F1000000000095
:101D40001A04F20068026702436F6469676F004219
:101D5000792020474D4257003433332C39324D68B7
:101D60007A004445434F444552005452414E534D2E
:101D70004954494E444F00434600436F642020209D
:101D80002020202020202020202000626974732041
:101D90002020202020202020202020006C656E673D
:101DA0007468202020202020202020200070726FC6
:101DB000746F636F6C6F202020202020200045442A
:041DC0004954000082
:107E0000112484B714BE81FFF0D085E080938100F7
:107E100082E08093C00088E18093C10086E0809377
:107E2000C20080E18093C4008EE0C9D0259A86E02C
:107E300020E33CEF91E0309385002093840096BBD3
:107E4000B09BFECF1D9AA8958150A9F7CC24DD24C4
:107E500088248394B5E0AB2EA1E19A2EF3E0BF2EE7
:107E6000A2D0813461F49FD0082FAFD0023811F036
:107E7000013811F484E001C083E08DD089C08234E0
:107E800011F484E103C0853419F485E0A6D080C0E4
:107E9000853579F488D0E82EFF2485D0082F10E0AE
:107EA000102F00270E291F29000F111F8ED06801E7
:107EB0006FC0863521F484E090D080E0DECF843638
:107EC00009F040C070D06FD0082F6DD080E0C81688
:107ED00080E7D80618F4F601B7BEE895C0E0D1E017
:107EE00062D089930C17E1F7F0E0CF16F0E7DF06D8
:107EF00018F0F601B7BEE89568D007B600FCFDCFD4
:107F0000A601A0E0B1E02C9130E011968C91119780
:107F100090E0982F8827822B932B1296FA010C0160
:107F200087BEE89511244E5F5F4FF1E0A038BF0790
:107F300051F7F601A7BEE89507B600FCFDCF97BE46
:107F4000E89526C08437B1F42ED02DD0F82E2BD052
:107F50003CD0F601EF2C8F010F5F1F4F84911BD097
:107F6000EA94F801C1F70894C11CD11CFA94CF0C13
:107F7000D11C0EC0853739F428D08EE10CD085E9AC
:107F80000AD08FE07ACF813511F488E018D01DD067
:107F900080E101D065CF982F8091C00085FFFCCF94
:107FA0009093C60008958091C00087FFFCCF809118
:107FB000C00084FD01C0A8958091C6000895E0E648
:107FC000F0E098E1908380830895EDDF803219F02E
:107FD00088E0F5DFFFCF84E1DECF1F93182FE3DFCA
:107FE0001150E9F7F2DF1F91089580E0E8DFEE27F6
:047FF000FF270994CA
:027FFE00040479
:00000001FF
