:020000040000FA
:100000000C9498000C9494060C946D060C94C0000B
:100010000C94C0000C94C0000C94C0000C94C00060
:100020000C94C0000C94C0000C94C0000C94C00050
:100030000C94C0000C94C0000C94C0000C94C00040
:100040000C9423060C94C0000C94C0000C94C000C7
:100050000C94C0000C94C0000C94C0000C94C00020
:100060000C94C0000C94C000000000002400270085
:100070002A0000000000250028002B0000000000DE
:1000800023002600290004040404040404040202DA
:100090000202020203030303030301020408102007
:1000A0004080010204081020010204081020000012
:1000B0000008000201000003040700000000000027
:1000C00000005E01011F01030301008A02010A0111
:1000D0000202010064001E47040B0906007C0101B6
:1000E000060103030100F401060E0102020100C231
:1000F00001170101020201019600023E01060601FC
:1001000000C80003820710031000C8008207100710
:100110001003016D01120103010103010E0124010D
:100120000102020101400124010102020101050E48
:1001300011241FBECFEFD8E0DEBFCDBF11E0A0E09D
:10014000B1E0ECE5FDE102C005900D92AC3DB107D8
:10015000D9F722E0ACEDB1E001C01D92A93BB20796
:10016000E1F710E0C8E9D0E004C02197FE010E9449
:10017000970EC739D107C9F70E94BB060C94AC0E85
:100180000C940000E0919202F0919302EF3FFE0781
:1001900039F110928E0210928F02109290021092FA
:1001A000910210928D0210928C022E2FE230C0F438
:1001B000FF27EE0FFF1FE859FE4F8DEB94E0918370
:1001C000808380916900213031F08C7F8160809341
:1001D0006900E89A0895837F846080936900E99AB2
:1001E00008950895AF92BF92CF92DF92EF92FF925F
:1001F0000F931F93CF93DF936C017B018B01040F4F
:10020000151FEB015E01AE18BF08C017D10759F0EA
:100210006991D601ED91FC910190F081E02DC6012C
:100220000995892B79F7C501DF91CF911F910F9126
:10023000FF90EF90DF90CF90BF90AF900895833004
:1002400081F028F4813099F08230A9F00895873048
:10025000A9F08830C9F08430B1F4809180008F7D9E
:1002600003C0809180008F7780938000089584B5CB
:100270008F7784BD089584B58F7DFBCF8091B000CA
:100280008F778093B00008958091B0008F7DF9CF73
:10029000CF93DF93282F30E0F901E255FF4F84918F
:1002A000F901E656FF4FD491F901EA57FF4FC49187
:1002B000CC23A1F081110E941F01EC2FF0E0EE0F82
:1002C000FF1FE458FF4FA591B491EC91ED2381E01D
:1002D00090E009F480E0DF91CF91089580E090E014
:1002E000FACF1F93CF93DF93282F30E0F901E25527
:1002F000FF4F8491F901E656FF4FD491F901EA5777
:10030000FF4FC491CC23A9F0162F81110E941F0129
:10031000EC2FF0E0EE0FFF1FEE58FF4FA591B491C8
:100320008FB7F894EC91111108C0D095DE23DC93BF
:100330008FBFDF91CF911F910895DE2BF8CF1F93D0
:10034000CF93DF93182FD92F8091A00260E0C1E0F6
:10035000811102C061E0C0E0809194020E947101AD
:100360002091980230919902129FC001139F900D25
:1003700011248230910538F0880F991F880F991F3A
:1003800005970197F1F76C2F809194020E947101FB
:100390002091980230919902D29FC001D39F900D75
:1003A00011248230910538F0880F991F880F991F0A
:1003B00005970197F1F7DF91CF911F910895CF93A2
:1003C000DF9390E0FC01E656FF4F24918A579F4F40
:1003D000FC0184918823D1F090E0880F991FFC01E3
:1003E000E859FF4FA591B491FC01EE58FF4FC5911C
:1003F000D491623071F49FB7F8943C91822F80952C
:1004000083238C93E8812E2B28839FBFDF91CF918C
:1004100008958FB7F894EC912E2B2C938FBFF6CFC5
:100420003FB7F89480916F0290917002A091710291
:10043000B091720226B5A89B05C02F3F19F0019616
:10044000A11DB11D3FBFBA2FA92F982F8827BC012E
:10045000CD01620F711D811D911D42E0660F771F56
:10046000881F991F4A95D1F708958F929F92AF9256
:10047000BF92CF92DF92EF92FF924B015C010E94FC
:1004800010026B017C010E9410026C197D098E091B
:100490009F09683E734081059105A8F321E0821A07
:1004A0009108A108B10888EEC80E83E0D81EE11CAF
:1004B000F11C81149104A104B10429F7FF90EF907D
:1004C000DF90CF90BF90AF909F908F900895089548
:1004D00090E080E008958F929F92AF92BF920F9329
:1004E0001F93CF93DF93CDB7DEB7A1970FB6F894E4
:1004F000DEBF0FBECDBF19A2423008F44AE08E0124
:100500000F5D1F4F842E912CB12CA12CA5019401BD
:100510000E946A0EE62FB901CA01EA3044F5E05D97
:10052000D801EE938D01232B242B252B79F790E016
:1005300080E0109769F0FD0101900020E9F7319704
:10054000AF014A1B5B0BBD0181EA92E00E94F20001
:10055000A1960FB6F894DEBF0FBECDBFDF91CF914D
:100560001F910F91BF90AF909F908F900895E95C7D
:10057000D7CFFC0101900020E9F73197AF01481B6C
:10058000590BBC0181EA92E00C94F200CF93DF9307
:10059000EC0160E08E810E94710161E08E810E9419
:1005A000710160E08E810E9471018BE891E00197FA
:1005B000F1F7DF91CF910895CF92DF92EF92FF9202
:1005C0000F931F93CF93DF936C017C0187E0E80EBC
:1005D000F11CD0E0C0E0062F10E0B8010C2E02C0E4
:1005E000759567950A94E2F76170F70181917F0133
:1005F0000E9471012196C430D10579F7C601DF91BF
:10060000CF911F910F91FF90EF90DF90CF900C94BE
:10061000C602CF92DF92EF92FF920F931F93CF9378
:10062000DF93EC01F62E642F8C810E9471018D8185
:100630008F3F19F060E00E9471010F2D10E08F854F
:1006400084FF25C06E0187E0C80ED11CF12CE12C7F
:10065000B8010E2C02C0759567950A94E2F7617097
:10066000F60181916F010E947101FFEFEF1AFF0AFD
:1006700088E0E816F10461F7CE01DF91CF911F9178
:100680000F91FF90EF90DF90CF900C94C602B801CD
:1006900084E0759567958A95E1F7CE010E94DC02AA
:1006A0006F2DCE01DF91CF911F910F91FF90EF90B1
:1006B000DF90CF900C94DC0240E0682F81EA92E05A
:1006C0000C94090381E00E945C038BE39FE1019796
:1006D000F1F70895CF93DF93823029F49091B0021F
:1006E00098609093B0028093B4021092B50280E4B7
:1006F0008093B60280E18093B70280E58093B802D0
:1007000061E08091A5020E94DF018091A6028F3FE7
:1007100019F061E00E94DF0161E08091A7020E9470
:10072000DF01C1EAD2E09E01215A32408091B0023D
:1007300084FD0BC084E090E021962817390744F42B
:1007400061E08E810E94DF01EECF88E090E0F4CF7F
:100750008BE39DE00197F1F760E08091A5020E9494
:10076000710160E08091A7020E9471018091A60250
:100770008F3F19F060E00E9471018091B00284FD0A
:1007800034C063E081EA92E00E94DC02CBE4D6E46C
:10079000CE010197F1F763E081EA92E00E94DC026A
:1007A0002197F1F763E081EA92E00E94DC0283E5A1
:1007B00092E00197F1F762E081EA92E00E94DC02A8
:1007C0008091B00280620E945C0384E08093B10259
:1007D0008CE00E945C030E94620382E08093B2027C
:1007E00086E0DF91CF910C945C0380620E945C03F1
:1007F0008BE496E40197F1F78091B00280620E9449
:100800005C0383E592E00197F1F78091B00280628A
:100810000E945C03D5CF9091B402691710F06FEF7E
:10082000690FE62FF0E0EF55FD4F9489890F80683E
:100830000C945C0341E00E94090381E090E008957C
:10084000CF92DF92EF92FF926B017C0141E06DE26B
:1008500081EA92E00E94090366277727CB016C1991
:100860007D098E099F094AE00E946B020196FF9064
:10087000EF90DF90CF900895BC01990F880B990BF2
:1008800097FD0C9420044AE00C946B0260E084E035
:100890000E940B0488E791E00E94B90260E08BE0BF
:1008A0000E940B04809177029091780201960E9439
:1008B0003C0461E083E00E940B04E0917702F09138
:1008C0007802EE0FFF1FEE0FFF1FE05BFE4F60810F
:1008D0007181828193814AE00E946B0286E00E94CE
:1008E0004801892B11F586E00E944801892BD9F334
:1008F0008091770290917802059731F48FEF9FEF06
:100900009093780280937702809177029091780299
:100910000196909378028093770268EC70E080E013
:1009200090E00E9435020E94620387E00E94480125
:10093000892B11F587E00E944801892BD9F380911A
:10094000770290917802892B31F486E090E09093C1
:1009500078028093770280917702909178020197D4
:10096000909378028093770268EC70E080E090E0EA
:100970000E9435020C94620308952F923F924F9289
:100980005F926F927F928F929F92AF92BF92CF921F
:10099000DF92EF92FF920F931F93CF93DF93CDB728
:1009A000DEB765970FB6F894DEBF0FBECDBF0E94CD
:1009B00010026B017C018091660290916702260112
:1009C000481A590A4DEC441640E1540608F4E0C0B8
:1009D0008091640290916502009789F02091DE0178
:1009E0003091DF011201221A330A910137FE03C050
:1009F000319521953109283C31050CF0C5C001968F
:100A00009093650280936402029709F0BDC092EC56
:100A1000692E90E0792E01E010E02090DC0130900A
:100A2000DD013B862A8649E050E0B301CE01019604
:100A30000E944D0E8B816C81681708F4682F70E05E
:100A40008091DE019091DF010E94560E9B01409142
:100A5000000150910101649FC001659F900D749F3A
:100A6000900D112464E670E00E94560E8985A1E085
:100A7000B0E0882311F0A2E0B0E08D81829FA00158
:100A8000839F500D11245D874C878E81829F1001BA
:100A9000839F300C11243F862E868F81829FA00178
:100AA000839F500D1124598B488B8885829F10019C
:100AB000839F300C11243B8A2A8AFD01EE0FFF1F11
:100AC000E252FE4F812C912C54014A855B854150A6
:100AD00051095D8B4C8B8C899D89A817B90708F04B
:100AE00040C0880C991CAA1CBB1C80819181AC0160
:100AF0002C843D844219530957FF03C051954195F9
:100B000051094617570770F4428153812E843F8460
:100B10004219530957FF03C0519541955109461792
:100B20005707E0F048895989841B950B97FF03C04C
:100B300091958195910986179707C8F482819381D1
:100B40002A883B888219930997FF03C09195819564
:100B500091098617970758F4689480F8129634968E
:100B6000BACF4A855B854830510508F053C00F5F06
:100B70001F4F59E0650E711C0D30110509F04DCF66
:100B800010926502109264021092DD011092DC0155
:100B90008091DC019091DD018334910540F0109249
:100BA000DD011092DC0110926502109264028091C6
:100BB000DC019091DD019C012F5F3F4F3093DD01FF
:100BC0002093DC01880F991FFC01E252FE4F5182F5
:100BD0004082C0926602D0926702E0926802F09270
:100BE000690265960FB6F894DEBF0FBECDBFDF91E8
:100BF000CF911F910F91FF90EF90DF90CF90BF901A
:100C0000AF909F908F907F906F905F904F903F90AC
:100C10002F90089580928E0290928F02A09290025F
:100C2000B09291022C883D883694279430928D02A0
:100C300020928C02309376022093750210937402F6
:100C4000009373029DCF1F920F920FB60F92112443
:100C50002F933F938F939F93AF93BF9380916B029A
:100C600090916C02A0916D02B0916E0230916A0277
:100C700023E0230F2D3758F50196A11DB11D2093B8
:100C80006A0280936B0290936C02A0936D02B09302
:100C90006E0280916F0290917002A0917102B091EA
:100CA00072020196A11DB11D80936F029093700294
:100CB000A0937102B0937202BF91AF919F918F91F7
:100CC0003F912F910F900FBE0F901F90189526E81F
:100CD000230F0296A11DB11DD2CF1F920F920FB606
:100CE0000F9211242F933F934F935F936F937F93B2
:100CF0008F939F93AF93BF93EF93FF93E0916A011C
:100D0000F0916B010995FF91EF91BF91AF919F9188
:100D10008F917F916F915F914F913F912F910F90A4
:100D20000FBE0F901F9018951F920F920FB60F9243
:100D300011242F933F934F935F936F937F938F93E0
:100D40009F93AF93BF93EF93FF93E0916801F0916E
:100D500069010995FF91EF91BF91AF919F918F919B
:100D60007F916F915F914F913F912F910F900FBEA7
:100D70000F901F901895CF93DF9300D000D000D034
:100D8000CDB7DEB7789484B5826084BD84B58160C8
:100D900084BD85B5826085BD85B5816085BD809146
:100DA0006E00816080936E001092810080918100BE
:100DB00082608093810080918100816080938100B6
:100DC000809180008160809380008091B100846078
:100DD0008093B1008091B00081608093B0008091D9
:100DE0007A00846080937A0080917A008260809398
:100DF0007A0080917A00816080937A0080917A00F5
:100E0000806880937A001092C10062E086E00E94C0
:100E1000DF0162E087E00E94DF0162E08EE00E9475
:100E2000DF0162E08FE00E94DF01109293021092D6
:100E300092020E94C20080E190E09093950280931C
:100E4000940261E00E94DF0182E00E946A030E9436
:100E5000620360E083E00E940B048FE791E00E9450
:100E6000B90264EF71E080E090E00E94350260E03A
:100E700083E00E940B0488E891E00E94B90261E0DF
:100E800083E00E940B0482E991E00E94B90264EFC2
:100E900071E080E090E00E9435020E946203E1EF81
:100EA000CE2EE0E0DE2E412C512C32014394222440
:100EB0002A94322C80918E0290918F02A091900200
:100EC000B0919102892B8A2B8B2B09F442C080911F
:100ED0008E0290918F02A0919002B0919102809326
:100EE000880290938902A0938A02B0938B0280912A
:100EF0008C0290918D02B0E0A0E0809382029093EA
:100F00008302A0938402B093850280917502909130
:100F10007602B0E0A0E080937E0290937F02A093DF
:100F20008002B09381028091730290917402B0E0CC
:100F3000A0E080937A0290937B02A0937C02B0930E
:100F40007D0210928E0210928F02109290021092E7
:100F50009102409188025091890260918A027091B9
:100F60008B028091500190915101A0915201B0915A
:100F7000530184179507A607B70709F450C080915D
:100F8000540190915501A0915601B0915701481715
:100F900059076A077B0709F442C080915801909174
:100FA0005901A0915A01B0915B01481759076A078E
:100FB0007B07A9F180915C0190915D01A0915E0198
:100FC000B0915F01481759076A077B0741F180918B
:100FD000600190916101A0916201B0916301481795
:100FE00059076A077B07D9F041155105610571055D
:100FF000B1F08091860290918702019690938702CA
:10100000809386028330910509F492C10CF0D6C01A
:101010008130910509F41AC1029709F450C10E9468
:1010200046048EE00E944801892B09F059C20E94B3
:1010300062038EE00E9448018C01892B09F04EC2A8
:1010400060E082E00E940B048AE991E00E94B9020C
:1010500061E084E00E940B0488E791E00E94B902FD
:1010600061E08BE00E940B0460917702709178023E
:101070006F5F7F4F072E000C880B990B97FF03C201
:101080000E942004E0917702F0917802EE0FFF1F9A
:10109000EE0FFF1FE85FFE4F80819181A281B38137
:1010A0009C01215031092C30310520F081E090E085
:1010B000A0E0B0E0019729E0289FB001299F700DC2
:1010C00011246E537F4F49E050E088E992E00E947E
:1010D0004D0E8091770290917802880F991F880FAA
:1010E000991FFC01E05EFE4F20813181309399020F
:1010F0002093980220919402309195022F3F3F4F08
:1011000009F4E5C1FC01E85CFE4F20813181428198
:10111000538129833A834B835C83805B9E4FFC0120
:1011200080809180A280B3802091920230919302BE
:101130003E832D832F3F320799F08D81823060F4FA
:10114000F901FF27813009F4A2C1E898EE0FFF1FD3
:10115000E859FE4FD182C0823092930220929202CF
:101160008091960290919702081719070CF09FC181
:10117000E980FA8051E0E51AF108F7FC8FC181E0BF
:1011800090E0A0E0B0E00E2C04C0880F991FAA1FC9
:10119000BB1F0A94D2F788219921AA21BB21892B50
:1011A0008A2B8B2B09F475C180919E0290919F022E
:1011B0000E949F0181E0E81AF108DFCF8530910598
:1011C00009F428C10CF4EDC0069709F028CF40932C
:1011D000600150936101609362017093630180919B
:1011E000820290918302A0918402B0918502809343
:1011F000480190934901A0934A01B0934B0180911B
:101200007E0290917F02A0918002B0918102809332
:10121000300190933101A0933201B093330180915A
:101220007A0290917B02A0917C02B0917D02809322
:10123000180190931901A0931A01B0931B0185E046
:1012400090E09093870280938602E9CE409350010C
:101250005093510160935201709353018091820227
:1012600090918302A0918402B0918502809338010D
:1012700090933901A0933A01B0933B0180917E0293
:1012800090917F02A0918002B09181028093200111
:1012900090932101A0932201B093230180917A02BF
:1012A00090917B02A0917C02B0917D028093080115
:1012B00090930901A0930A01B0930B01B0CE409323
:1012C00054015093550160935601709357018091DA
:1012D000820290918302A0918402B0918502809352
:1012E0003C0190933D01A0933E01B0933F0180915A
:1012F0007E0290917F02A0918002B0918102809342
:10130000240190932501A0932601B0932701809199
:101310007A0290917B02A0917C02B0917D02809331
:101320000C0190930D01A0930E01B0930F0177CEA5
:10133000409358015093590160935A0170935B0197
:101340008091820290918302A0918402B0918502E3
:101350008093400190934101A0934201B0934301D7
:1013600080917E0290917F02A0918002B0918102D3
:101370008093280190932901A0932A01B0932B0117
:1013800080917A0290917B02A0917C02B0917D02C3
:101390008093100190931101A0931201B093130157
:1013A0003ECE40935C0150935D0160935E0170936B
:1013B0005F018091820290918302A0918402B0919A
:1013C00085028093440190934501A0934601B09318
:1013D000470180917E0290917F02A0918002B0919E
:1013E000810280932C0190932D01A0932E01B09344
:1013F0002F0180917A0290917B02A0917C02B091A2
:101400007D028093140190931501A0931601B0936F
:10141000170105CE40936001509361016093620112
:10142000709363018091820290918302A091840263
:10143000B09185028093480190934901A0934A019D
:10144000B0934B0180917E0290917F02A091800227
:10145000B09181028093300190933101A0933201C9
:10146000B093330180917A0290917B02A0917C022B
:10147000B0917D028093180190931901A0931A01F5
:10148000B0931B01CCCD4AE00E946B02FBCDE998E2
:101490005DCE80919C0290919D028ACE80919A02AD
:1014A00090919B020E949F010F5F1F4F59CE60E0F9
:1014B000809194020E947101ED81FE81EF3FFE0751
:1014C00031F0F0939302E09392020E94C20068EC24
:1014D00070E080E090E00E943502ABCD0E94620394
:1014E0008FE00E944801892B09F087C381E0809337
:1014F000790268EE73E080E090E00E94350280910E
:101500007902882309F471C30E94460460E08EE0EA
:101510000E940B0487EA91E00E94B9028EE00E94CB
:1015200048019A838983892B09F0A1C168EE73E091
:1015300080E090E00E9435020E94620360E080E05B
:101540000E940B0488E791E00E94B90260E087E006
:101550000E940B04809177029091780201960E947C
:101560003C0449815A81452B09F08AC161E080E041
:101570000E940B048AEA91E00E94B90261E085E0D2
:101580000E940B04E0917702F0917802EE0FFF1FAA
:10159000EE0FFF1FE05BFE4F6081718182819381BE
:1015A0004AE00E946B0286E00E944801892B09F5FF
:1015B00086E00E944801892BD9F329813A812330A2
:1015C000310521F44FEF5FEF5A83498389819A8176
:1015D00001969A83898368EC70E080E090E00E9435
:1015E000350261E080E00E940B0484EC91E00E94EF
:1015F000B90287E00E944801892B09F587E00E9423
:101600004801892BD9F3E981FA81EF2B21F424E0F9
:1016100030E03A83298349815A81415051095A83E4
:10162000498368EC70E080E090E00E94350261E060
:1016300080E00E940B0484EC91E00E94B9028EE0ED
:101640000E944801892B09F004C140920401509284
:101650000501609206017092070168EE73E080E078
:1016600090E00E94350260E089E00E940B0484ED66
:1016700091E00E94B90289819A81892B09F04BC1BE
:1016800086E00E944801892B49F586E00E944801C6
:10169000892BD9F3E0917702F0917802EE0FFF1FCA
:1016A000EE0FFF1FE05BFE4F80819181A281B3812D
:1016B000409104015091050160910601709107016C
:1016C000840F951FA61FB71F80839183A283B383C6
:1016D00068EC70E080E090E00E94350287E00E94B4
:1016E0004801892B49F587E00E944801892BD9F3ED
:1016F000E0917702F0917802EE0FFF1FEE0FFF1FCF
:10170000E05BFE4F80819181A281B3814091040111
:10171000509105016091060170910701841B950BA2
:10172000A60BB70B80839183A283B38368EC70E030
:1017300080E090E00E94350261E080E00E940B04AE
:101740008AEA91E00E94B90261E085E00E940B0400
:10175000E0917702F0917802EE0FFF1FEE0FFF1F6E
:10176000E05BFE4F60817181828193814AE00E943B
:101770006B0264EF71E080E090E00E94350280919E
:10178000020161E08C5F0E940B0482ED91E00E94F7
:10179000B90264EF71E080E090E00E9435028EE0D3
:1017A0000E944801892B09F046C08EE00E94480142
:1017B000892BD9F320910401309105014091060154
:1017C00050910701AAE0B0E00E948C0E60930401E2
:1017D0007093050180930601909307012091020107
:1017E000309103012F5F3F4F30930301209302019B
:1017F00061157A4C8A499B4371F4409204015092DE
:101800000501609206017092070141E050E050939B
:1018100003014093020160E08EE00E940B0480917E
:101820000201909103010E943C0468EC70E080E0AA
:1018300090E00E9435028FE00E944801892B09F058
:101840001ACF68EE73E080E090E00E9435020E94BB
:1018500062038FE00E944801892B09F06FCE68EE89
:1018600073E080E090E00E9435020E9462038FE006
:101870000E944801892B09F042CE109279023FCE96
:1018800089819A810197B9F461E080E00E940B049C
:101890008EEA91E00E94B90261E086E00E940B04AA
:1018A000E0917702F0917802EE0FFF1FEE0FFF1F1D
:1018B000E85CFE4F71CEE981FA8161E080E0329709
:1018C000A9F40E940B0483EB91E00E94B90261E04D
:1018D00088E00E940B04E0917702F0917802EE0F0D
:1018E000FF1FEE0FFF1FE05EFE4F56CE0E940B045F
:1018F0008AEB91E00E94B90261E08BE00E940B0448
:10190000E0917702F0917802EE0FFF1FEE0FFF1FBC
:10191000E85FFE4F41CEE981FA81319709F07AC044
:1019200086E00E944801892B49F586E00E94480123
:10193000892BD9F3E0917702F0917802EE0FFF1F27
:10194000EE0FFF1FE85CFE4F80819181A281B38181
:1019500040910401509105016091060170910701C9
:10196000840F951FA61FB71F80839183A283B38323
:1019700068EC70E080E090E00E94350287E00E9411
:101980004801892B49F587E00E944801892BD9F34A
:10199000E0917702F0917802EE0FFF1FEE0FFF1F2C
:1019A000E85CFE4F80819181A281B3814091040166
:1019B000509105016091060170910701841B950B00
:1019C000A60BB70B80839183A283B38368EC70E08E
:1019D00080E090E00E94350261E080E00E940B040C
:1019E0008EEA91E00E94B90261E086E00E940B0459
:1019F000E0917702F0917802EE0FFF1FEE0FFF1FCC
:101A0000E85CFE4F60817181828193814AE00E948F
:101A10006B02C5CE29813A8186E02230310509F07A
:101A200072C00E944801892B49F586E00E94480156
:101A3000892BD9F3E0917702F0917802EE0FFF1F26
:101A4000EE0FFF1FE05EFE4F80819181A281B38186
:101A500040910401509105016091060170910701C8
:101A6000840F951FA61FB71F80839183A283B38322
:101A700068EC70E080E090E00E94350287E00E9410
:101A80004801892B49F587E00E944801892BD9F349
:101A9000E0917702F0917802EE0FFF1FEE0FFF1F2B
:101AA000E05EFE4F80819181A281B381409104016B
:101AB000509105016091060170910701841B950BFF
:101AC000A60BB70B80839183A283B38368EC70E08D
:101AD00080E090E00E94350261E080E00E940B040B
:101AE00083EB91E00E94B90261E088E00E940B0460
:101AF000E0917702F0917802EE0FFF1FEE0FFF1FCB
:101B0000E05EFE4F7FCF0E944801892B49F586E0B9
:101B10000E944801892BD9F3E0917702F091780275
:101B2000EE0FFF1FEE0FFF1FE85FFE4F80819181D8
:101B3000A281B38140910401509105016091060199
:101B400070910701840F951FA61FB71F8083918393
:101B5000A283B38368EC70E080E090E00E943502DD
:101B600087E00E944801892B49F587E00E944801DF
:101B7000892BD9F3E0917702F0917802EE0FFF1FE5
:101B8000EE0FFF1FE85FFE4F80819181A281B3813C
:101B90004091040150910501609106017091070187
:101BA000841B950BA60BB70B80839183A283B38311
:101BB00068EC70E080E090E00E94350261E080E037
:101BC0000E940B048AEB91E00E94B90261E08BE075
:101BD0000E940B04E0917702F0917802EE0FFF1F54
:101BE000EE0FFF1FE85FFE4F0DCF68EE73E080E061
:101BF00090E00E9435020E94620380E090E0892B11
:101C000009F458C90E94000052C90F931F93CF9343
:101C1000DF93C2E9D2E00FEF1FEF1B830A838AE054
:101C200090E09D838C8349E050E062EC70E088E9AD
:101C300092E00E944D0E198308838CE390E090930C
:101C400001018093000110928E0210928F02109277
:101C5000900210929102E1EAF2E01382128280E790
:101C600091E0918380838DE084838FEF85838CE086
:101C700086838BE087838AE0808789E0818788E09C
:101C800082871386148615861686178681E0DF9173
:101C9000CF911F910F910C946A03FB01DC0102C0EC
:101CA00005900D9241505040D8F70895AA1BBB1BD8
:101CB00051E107C0AA1FBB1FA617B70710F0A61B4C
:101CC000B70B881F991F5A95A9F780959095BC016D
:101CD000CD010895A1E21A2EAA1BBB1BFD010DC068
:101CE000AA1FBB1FEE1FFF1FA217B307E407F507CC
:101CF00020F0A21BB30BE40BF50B661F771F881FA8
:101D0000991F1A9469F760957095809590959B013D
:101D1000AC01BD01CF0108950E949D0EA59F900DBD
:101D2000B49F900DA49F800D911D11240895EE0F76
:101D3000FF1F0590F491E02D0994A29FB001B39F7D
:101D4000C001A39F700D811D1124911DB29F700DC4
:101D5000811D1124911D0895F894FFCF3C000100CE
:101D600001000000000000000B0000001600000051
:101D7000210000002C000000000000000000000016
:101D80000B00000016000000210000002C000000E5
:101D900000000000000000000B0000001600000022
:101DA000210000002C0000000000000000000000E6
:101DB0000B00000016000000210000002C000000B5
:101DC00000000000F100F100000000001A04F20021
:101DD00068026702436F6469676F00427920204799
:101DE0004D4257003433332C39324D687A00444524
:101DF000434F444552005452414E534D4954494E6D
:101E0000444F00434600436F640062697473006C82
:101E1000656E6774680070726F746F636F6C6F00CB
:101E200020202020202020202020202020202000D2
:081E3000454449542031000033
:107E0000112484B714BE81FFF0D085E080938100F7
:107E100082E08093C00088E18093C10086E0809377
:107E2000C20080E18093C4008EE0C9D0259A86E02C
:107E300020E33CEF91E0309385002093840096BBD3
:107E4000B09BFECF1D9AA8958150A9F7CC24DD24C4
:107E500088248394B5E0AB2EA1E19A2EF3E0BF2EE7
:107E6000A2D0813461F49FD0082FAFD0023811F036
:107E7000013811F484E001C083E08DD089C08234E0
:107E800011F484E103C0853419F485E0A6D080C0E4
:107E9000853579F488D0E82EFF2485D0082F10E0AE
:107EA000102F00270E291F29000F111F8ED06801E7
:107EB0006FC0863521F484E090D080E0DECF843638
:107EC00009F040C070D06FD0082F6DD080E0C81688
:107ED00080E7D80618F4F601B7BEE895C0E0D1E017
:107EE00062D089930C17E1F7F0E0CF16F0E7DF06D8
:107EF00018F0F601B7BEE89568D007B600FCFDCFD4
:107F0000A601A0E0B1E02C9130E011968C91119780
:107F100090E0982F8827822B932B1296FA010C0160
:107F200087BEE89511244E5F5F4FF1E0A038BF0790
:107F300051F7F601A7BEE89507B600FCFDCF97BE46
:107F4000E89526C08437B1F42ED02DD0F82E2BD052
:107F50003CD0F601EF2C8F010F5F1F4F84911BD097
:107F6000EA94F801C1F70894C11CD11CFA94CF0C13
:107F7000D11C0EC0853739F428D08EE10CD085E9AC
:107F80000AD08FE07ACF813511F488E018D01DD067
:107F900080E101D065CF982F8091C00085FFFCCF94
:107FA0009093C60008958091C00087FFFCCF809118
:107FB000C00084FD01C0A8958091C6000895E0E648
:107FC000F0E098E1908380830895EDDF803219F02E
:107FD00088E0F5DFFFCF84E1DECF1F93182FE3DFCA
:107FE0001150E9F7F2DF1F91089580E0E8DFEE27F6
:047FF000FF270994CA
:027FFE00040479
:00000001FF
